{
  "contractName": "SampleContract",
  "abi": [
    {
      "constant": true,
      "inputs": [],
      "name": "num",
      "outputs": [
        {
          "internalType": "uint256",
          "name": "",
          "type": "uint256"
        }
      ],
      "payable": false,
      "stateMutability": "view",
      "type": "function"
    },
    {
      "constant": false,
      "inputs": [
        {
          "internalType": "uint256",
          "name": "_num",
          "type": "uint256"
        }
      ],
      "name": "setNum",
      "outputs": [],
      "payable": false,
      "stateMutability": "nonpayable",
      "type": "function"
    },
    {
      "constant": true,
      "inputs": [],
      "name": "getNum",
      "outputs": [
        {
          "internalType": "uint256",
          "name": "",
          "type": "uint256"
        }
      ],
      "payable": false,
      "stateMutability": "view",
      "type": "function"
    }
  ],
  "bytecode": "0x608060405234801561001057600080fd5b5060f28061001f6000396000f3fe6080604052348015600f57600080fd5b5060043610603c5760003560e01c80634e70b1dc14604157806367e0badb14605d578063cd16ecbf146079575b600080fd5b604760a4565b6040518082815260200191505060405180910390f35b606360aa565b6040518082815260200191505060405180910390f35b60a260048036036020811015608d57600080fd5b810190808035906020019092919050505060b3565b005b60005481565b60008054905090565b806000819055505056fea265627a7a723158206eee4adeb4b8407dc2326571df38920f00c266beee128dc7e7ccc91417fc4b7964736f6c63430005100032",
  "source": "// SPDX-License-Identifier: MIT\r\npragma solidity >=0.4.22 <0.9.0;\r\n\r\ncontract SampleContract {\r\n\r\n    uint public num;\r\n\r\n    function setNum(uint _num) external {\r\n        num = _num;\r\n    }\r\n\r\n    function getNum() external view returns(uint) { \r\n        return num;\r\n    }\r\n}\r\n\r\n",
  "sourcePath": "D:/Projects/web3js-samples/0-sample-smart-contracts/contracts/SampleContract.sol",
  "compiler": {
    "name": "solc",
    "version": "0.5.16+commit.9c3226ce.Emscripten.clang"
  },
  "schemaVersion": "3.3.3",
  "updatedAt": "2021-05-13T17:05:54.998Z",
  "networkType": "ethereum",
  "devdoc": {
    "methods": {}
  },
  "userdoc": {
    "methods": {}
  }
}