{
  "contractName": "SampleContract",
  "abi": [
    {
      "payable": true,
      "stateMutability": "payable",
      "type": "fallback"
    },
    {
      "constant": true,
      "inputs": [
        {
          "internalType": "address",
          "name": "",
          "type": "address"
        }
      ],
      "name": "balances",
      "outputs": [
        {
          "internalType": "uint256",
          "name": "",
          "type": "uint256"
        }
      ],
      "payable": false,
      "stateMutability": "view",
      "type": "function"
    },
    {
      "constant": true,
      "inputs": [],
      "name": "num",
      "outputs": [
        {
          "internalType": "uint256",
          "name": "",
          "type": "uint256"
        }
      ],
      "payable": false,
      "stateMutability": "view",
      "type": "function"
    },
    {
      "constant": false,
      "inputs": [
        {
          "internalType": "uint256",
          "name": "_num",
          "type": "uint256"
        }
      ],
      "name": "setNum",
      "outputs": [],
      "payable": false,
      "stateMutability": "nonpayable",
      "type": "function"
    },
    {
      "constant": true,
      "inputs": [],
      "name": "getNum",
      "outputs": [
        {
          "internalType": "uint256",
          "name": "",
          "type": "uint256"
        }
      ],
      "payable": false,
      "stateMutability": "view",
      "type": "function"
    },
    {
      "constant": false,
      "inputs": [],
      "name": "pay",
      "outputs": [],
      "payable": true,
      "stateMutability": "payable",
      "type": "function"
    },
    {
      "constant": true,
      "inputs": [
        {
          "internalType": "address",
          "name": "user",
          "type": "address"
        }
      ],
      "name": "checkBalance",
      "outputs": [
        {
          "internalType": "uint256",
          "name": "",
          "type": "uint256"
        }
      ],
      "payable": false,
      "stateMutability": "view",
      "type": "function"
    }
  ],
  "bytecode": "0x608060405234801561001057600080fd5b50610307806100206000396000f3fe6080604052600436106100555760003560e01c80631b9265b8146100a457806327e235e3146100ae5780634e70b1dc146101135780635f5152261461013e57806367e0badb146101a3578063cd16ecbf146101ce575b34600160003373ffffffffffffffffffffffffffffffffffffffff1673ffffffffffffffffffffffffffffffffffffffff16815260200190815260200160002060008282540192505081905550005b6100ac610209565b005b3480156100ba57600080fd5b506100fd600480360360208110156100d157600080fd5b81019080803573ffffffffffffffffffffffffffffffffffffffff169060200190929190505050610258565b6040518082815260200191505060405180910390f35b34801561011f57600080fd5b50610128610270565b6040518082815260200191505060405180910390f35b34801561014a57600080fd5b5061018d6004803603602081101561016157600080fd5b81019080803573ffffffffffffffffffffffffffffffffffffffff169060200190929190505050610276565b6040518082815260200191505060405180910390f35b3480156101af57600080fd5b506101b86102bf565b6040518082815260200191505060405180910390f35b3480156101da57600080fd5b50610207600480360360208110156101f157600080fd5b81019080803590602001909291905050506102c8565b005b34600160003373ffffffffffffffffffffffffffffffffffffffff1673ffffffffffffffffffffffffffffffffffffffff16815260200190815260200160002060008282540192505081905550565b60016020528060005260406000206000915090505481565b60005481565b6000600160008373ffffffffffffffffffffffffffffffffffffffff1673ffffffffffffffffffffffffffffffffffffffff168152602001908152602001600020549050919050565b60008054905090565b806000819055505056fea265627a7a72315820a869f25c84ffa5a90059cbdd2ef3e2d7d76b61eba983b1263e19c83abaa973e264736f6c63430005100032",
  "source": "// SPDX-License-Identifier: MIT\r\npragma solidity >=0.4.22 <0.9.0;\r\n\r\ncontract SampleContract {\r\n\r\n    uint public num;\r\n    mapping(address=>uint) public balances;\r\n\r\n    function setNum(uint _num) external {\r\n        num = _num;\r\n    }\r\n\r\n    function getNum() external view returns(uint) { \r\n        return num;\r\n    }\r\n\r\n    function pay() external payable {\r\n        balances[msg.sender] += msg.value;\r\n    }\r\n\r\n    function() external payable {\r\n        balances[msg.sender] += msg.value;\r\n    }\r\n\r\n    function checkBalance(address user) external view returns(uint) {\r\n        return balances[user];\r\n    }\r\n}\r\n\r\n",
  "sourcePath": "D:/Projects/web3js-samples/0-sample-smart-contracts/contracts/SampleContract.sol",
  "compiler": {
    "name": "solc",
    "version": "0.5.16+commit.9c3226ce.Emscripten.clang"
  },
  "schemaVersion": "3.3.3",
  "updatedAt": "2021-05-16T03:48:02.987Z",
  "networkType": "ethereum",
  "devdoc": {
    "methods": {}
  },
  "userdoc": {
    "methods": {}
  }
}